:1000000055EF05F00000000000EF00F000000000D8
:0A0010000000000000000000F3D71C
:10001C00C7B409D01F0EC514016E0150000A03E1CC
:0A002C00010E006E01D0006A120000
:0C003600000E0F0121B3010E006E12003D
:0A004200000EA4BA010E006E1200B9
:10004C009E96C5869EB601D0FDD7C9CF01F00101A1
:10005C004851000A02E1C58A01D0C59A9E96C5880E
:0C006C009EB601D0FDD701C000F01200CC
:100078009E9648C1C9FFC7A401D0FDD79EB601D03E
:10008800FDD7C5BC02D0006A03D0C584020E006E3D
:02009800120054
:10009A001DCF01F00F0122A302D02299228901C0AB
:0400AA0000F0120050
:1000AE00AECF01F0ABA202D0AB98AB8801C000F08E
:0200BE0012002E
:1000C0000101486B496B4951120802E148518E0801
:1000D00008E3A4DF005201E004D00101484B492BA2
:1000E000F2D70101120E495D02E18F0E485D03E374
:1000F0007B0E006E05D0C580C5A001D0FDD7006A7B
:020100001200EB
:0A010200000EACB2010E006E1200F8
:0A010C00000E9EBA010E006E1200F4
:0A011600C582C5A201D0FDD712007A
:04012000C584120080
:10012400F250026EF29E0500FF6A0150FE6E00500E
:08013400FD6E02BEF28E120006
:10013C0044C104F045C105F042C102F043C103F0D3
:10014C0046C100F047C101F0010E0101465F000EEF
:10015C00475B005001100FE004C0E9FF05C0EAFF47
:10016C0002C0E1FF03C0E2FFEECFE6FF024A032A22
:10017C00044A052AE5D742C100F043C101F0120040
:0E018C00ACB202D00000FCD727C1ADFF1200BC
:10019A00086A096A100E0C6E0134083609360450D2
:1001AA00085E0550D8A0053C095ED8B007D00450B7
:1001BA0008260550D8B0053C0926D89000360136E5
:0601CA000C2EEAD7120022
:1001D00001012D6B2E6B2F6B306B316B326B336BE0
:1001E000346B356B366B376B386B396B3A6B3B6BFB
:1001F0003C6B3D6B3E6B3F6B406B416B2C51010A7E
:1002000004E1A00E29112D6F05D02C51000A02E146
:10021000E70E2D6F2E0E426F010E436F27C144F182
:1002200028C145F12AC146F12BC147F187DF2A4B8E
:100230002B2B416BCDC000F0CEC001F073DFAEC000
:10024000E1FFAFC0E2FFB4C0E6FFACC000F0ADC05C
:1002500001F068DF000E006E01012B51005C02E12D
:100260002A51010822E22AC100F02BC101F0010E3F
:100270002A5F000E2B5B0050011016E02D0EE96E78
:10028000010EEA6E4151E926D8B0EA2AAEC0E1FF7C
:10029000AFC0E2FFEECFE6FFACC000F0ADC001F0B2
:1002A00041DF0101412BDFD711D0000E2B1902E1F4
:1002B000010E2A190BE1AEC0E1FFAFC0E2FF2DC174
:1002C000E6FFACC000F0ADC001F02CDFC5C000F00F
:0802D000C6C001F027DF120097
:1002D8001C0E0001C96F000ECA6F000ECB6F000E16
:1002E800CC6FC00ECD6F000ECE6F000ECF6F000E1C
:1002F800D06F200EC56F010EC66F000EC76F000EBF
:10030800C86F160EB06F010EB16F000EB26F000EFF
:10031800B36F780EAC6F000EAD6F480EAE6F010E66
:10032800AF6F4C0EA86F000EA96F480EAA6F010E92
:10033800AB6F27C1B4F0B437B49128C148F01200AC
:10034800949894968B988B9694889486C79EC79C0D
:06035800380EC66E120013
:10035E00200E0101126F136B146B156B166B176B5E
:10036E00186B196B1A6B1B6B1C6B1D6B1E6B1F6B4B
:10037E00206B216B226B236B246B256B010E266F7A
:10038E0011C127F1010E286FA0DF120E0101276F98
:10039E00010E286F0F0E296F010E2A6F000E2B6FA4
:1003AE0026C12CF10EDF0101126B120E276F010E0A
:1003BE00286F0E0E296F010E2A6F000E2B6F26C1AD
:1003CE002CF1FFDED80E0101126F120E276F010EF7
:1003DE00286F030E296F010E2A6F000E2B6F26C198
:1003EE002CF1EFDE010E0101126F300E136F010EB4
:1003FE00146F700E156F120E276F010E286F080EF8
:10040E00296F040E2A6F000E2B6F26C12CF1D9DE38
:10041E00010E0101126F300E136F010E146F700E6C
:10042E00156F120E276F010E286F040E296F040E22
:10043E002A6F000E2B6F26C12CF1C3DEA00E010118
:10044E00126F120E276F010E286F0C0E296F010E00
:10045E002A6F000E2B6F26C12CF1B3DE3F0E010169
:10046E00126F120E276F010E286F296B010E2A6F65
:10047E00000E2B6F26C12CF1A4DE0101266B120E8D
:10048E00276F010E286F296B2A6B2B6B2C6B99DE55
:10049E00010E0101266FFC0E126F120E276F010E58
:1004AE00286F010E296F010E2A6F000E2B6F010EA1
:1004BE002C6F87DEFE0E0101126F120E276F010EDA
:1004CE00286F020E296F010E2A6F000E2B6F26C1A8
:0604DE002CF177DE120094
:1004E4000101146B11C1E9FF12C1EAFFEECF13F150
:1004F4001351000A0EE013C127F146DE0101142B4B
:1005040014511125E96E000E1221EA6EEECF13F19B
:04051400EFD712000B
:100518008C0E0001B56F010EB66F270EB76F010E76
:10052800B86FAE0EC16F000EC26F000EC36F000E23
:10053800C46F0C0EBD6F010EBE6F000EBF6F000EB4
:10054800C06F020EB96F010EBA6F000EBB6F000EBE
:10055800BC6FAC8A900EAB6E948E949C9EAA03D00E
:08056800AECF00F0FBD712003A
:1005700048C015F111C116F112C117F10101186B34
:10058000196B1A6B1B6B1C6B1D6B1E6B1F6B206B2F
:10059000216BA00E1311186FCDC000F0CEC001F07A
:1005A000C1DDAEC0E1FFAFC0E2FFB4C0E6FFACC04A
:1005B00000F0ADC001F0B6DD15C100F00101150776
:1005C00000520CE0AEC0E1FFAFC0E2FF18C1E6FF91
:1005D000ACC000F0ADC001F0A5DDEED7C5C000F0A5
:1005E000C6C001F09FDD11C116F112C117F1CDC0D7
:1005F00000F0CEC001F096DD010E0001B411006ED6
:10060000AEC0E1FFAFC0E2FF00C0E6FFACC000F04B
:10061000ADC001F087DD01011407145315E0AAC035
:10062000E1FFABC0E2FF47C0E6FFA8C000F0A9C0F1
:1006300001F078DD16C1E1FF17C1E2FF00C0E6FF5F
:100640000101164B172BE7D7AAC0E1FFABC0E2FFB1
:1006500029C0E6FFA8C000F0A9C001F063DD16C103
:10066000E1FF17C1E2FF00C0E6FFC5C000F0C6C051
:0606700001F058DD12004C
:100676000101156B050E155D0AE215511325E16E94
:10068600000E1421E26E200EE66E152BF3D71551DF
:100696001325E16E000E1421E26EE66A1507155168
:1006A6001325166F000E1421176F0A0E046E000E26
:1006B600056E11C100F012C101F06CDD08C000F03A
:1006C60009C001F0300E002616C1E1FF17C1E2FF96
:1006D60000C0E6FF0A0E046E000E056E11C100F0A2
:1006E60012C101F057DD00C011F101C012F1000E78
:1006F600011802E1000E001801E102D01507CFD75C
:020706001200DF
:100708000900F5CFE6FF0006FBE10106F9E112005A
:10071800670EAF6EAC84FCDE070E0B6E170E0C6E08
:100728006A0E0D6E0D2EFED70C2EFCD70B2EFAD7A7
:100738000000920E0101116F000E126FCFDE280E1D
:10074800C86EFEDD0B0E0B6E260E0C6E5D0E0D6E6A
:100758000D2EFED70C2EFCD70B2EFAD7000000006A
:10076800800E116F000E126FB9DE62C011F1F3DD59
:10077800070E0B6E170E0C6E6A0E0D6E0D2EFED741
:100788000C2EFCD70B2EFAD700004C0E0101116F6E
:08079800000E126FA3DE120037
:1007A0000101016B026BF9C003F1FAC004F1800E84
:1007B0000001FA19006E800E005C02E1000EF95D86
:1007C0000EE2010E0101016F000E026F0001F951EE
:1007D00000080101036FFAC004F1000E045703C1C1
:1007E00011F104C112F1FBC013F1FCC014F143DF9D
:1007F000060E0001FD6F000EFE6F000E006EFE5132
:10080000005C02E1FD51000819E2FD51FB25E16E9B
:10081000FE51FC21E26E010EFD5D006E000EFE59E0
:10082000016E0050FB25E96E0150FC21EA6EEECF0F
:10083000E6FF010EFD5F000EFE5BDFD7FBC0E1FFB0
:10084000FCC0E2FF200EE66E0101015102111BE027
:100850000001FD6BFE6BFD51FB25E96EFE51FC2195
:10086000EA6EEE50200A03E1FD4BFE2BF4D7010E99
:10087000FD5F000EFE5BFD51FB25E16EFE51FC218C
:08088000E26E2D0EE66E12007F
:100888000001FB6BFC6BFD6BFE6BFF6B0101006BEA
:10089800016B026B036B046B056B066B076B086BD4
:1008A800096B0A6B0B6B0C6B0D6B0E6BFB0E116FF0
:1008B800000E126F140E136F080E146F55DEFBC076
:1008C8000FF1000E0101106FFCC003F0000E046E62
:1008D80003C001F0006A0F5100121051011200C04C
:1008E8000FF101C010F1F9C0E1FFFAC0E2FF00C04A
:1008F800E6FF01C0E6FFFDC00FF1000E106FFEC05D
:1009080003F0000E046E03C001F0006A0F510012DC
:100918001051011200C00FF101C010F1020E0001C8
:10092800F925E16E000EFA21E26E00C0E6FF01C073
:10093800E6FFFFC00FF1000E0101106F00C103F0C8
:10094800000E046E03C001F0006A0F51001210512E
:10095800011200C00FF101C010F1040E0001F925C9
:10096800E16E000EFA21E26E00C0E6FF01C0E6FF6C
:1009780001C10FF1000E0101106F02C103F0000E5A
:10098800046E03C001F0006A0F51001210510112E9
:1009980000C00FF101C010F1060E0001F925E16E4B
:1009A800000EFA21E26E00C0E6FF01C0E6FF120069
:1009B800FAC000F00032009E0032009E0032009E15
:1009C8000032009E410E0024F66E0D0EF76E000EEA
:1009D800F722000EF86E000EF8220900F5CF00F09D
:1009E800FBC0E1FFFCC0E2FF00C0E6FF010E000112
:1009F800FB25E16E000EFC21E26E0F0EFA15006E6B
:100A0800410E0024F66E0D0EF76E000EF722000E52
:100A1800F86E000EF8220900F5CF00F000C0E6FFDE
:100A2800020EFB25E16E000EFC21E26EF9C000F01B
:100A38000032009E0032009E0032009E0032009E6E
:100A4800410E0024F66E0D0EF76E000EF722000E12
:100A5800F86E000EF8220900F5CF00F000C0E6FF9E
:100A6800030EFB25E16E000EFC21E26E0F0EF91558
:100A7800006E410E0024F66E0D0EF76E000EF72282
:100A8800000EF86E000EF8220900F5CF00F000C045
:100A9800E6FF040EFB25E16E000EFC21E26EE66A1D
:020AA80012003A
:100AAA00A9EC06F00001D16BD26BD36BD46BD56B7A
:100ABA00D66B120ED76FD86BD96BDA6BDB6BDC6B2C
:100ACA00DD6BDE6BDF6BE06BE16BE26BE36BE46BC0
:100ADA00E56BE66BE76BE86BE96BEA6BEB6BEC6B70
:100AEA00ED6BEE6BEF6BF06B12DE1C0E116F000EEE
:100AFA00126FF3DCD10E116F000E126FD7C013F113
:100B0A00010E146F30DDD1C0F9F0000E0001FA6F4A
:100B1A00D80EFB6F000EFC6F4ADFD80E0101116F71
:100B2A00000E126FDADC150E116F000E126FD5DC93
:100B3A00150E0B6E4B0E0C6EBE0E0D6E0D2EFED7E5
:100B4A000C2EFCD70B2EFAD70000F10E0001F96F1C
:100B5A00000EFA6F94DE3A0E0101116F000E126F49
:100B6A00BCDCF1C0F9F0F2C0FAF0D80E0001FB6F5C
:100B7A00000EFC6F10DED80E0101116F000E126F0D
:100B8A00ACDC370E116F000E126FA7DC2A0E116F44
:100B9A00000E126FA2DCF3C0F9F0F4C0FAF0D80E1E
:100BAA000001FB6F000EFC6FF6DDD80E0101116F1C
:100BBA00000E126F92DC490E116F000E126F8DDC5F
:100BCA00730E116F000E126F88DCF5C0F9F0F6C0D3
:100BDA00FAF0D80E0001FB6F000EFC6FDCDDD80EB8
:100BEA000101116F000E126F78DC700E116F000E8A
:100BFA00126F73DC630E116F000E126F6EDCF7C09A
:100C0A00F9F0F8C0FAF0D80E0001FB6F000EFC6F85
:100C1A00C2DDD80E0101116F000E126F5EDCA50E47
:100C2A00116F000E126F59DC150E0B6E4B0E0C6E07
:100C3A00BE0E0D6E0D2EFED70C2EFCD70B2EFAD73C
:060C4A00000083D7FFD774
:100D520010EE15F0930E006E010E016E500EF66E3F
:0E0D62000C0EF76E000EF86E84EC03F012001B
:070C50000D0A0D0A0D0A0058
:0D0C57004465766963652049443A20200019
:010C6400008F
:0D0C650052656420446174613A2020200033
:030C72000D0A0068
:0D0C7500436C65617220446174613A200097
:010C82000170
:010C8300016F
:030C84000D0A0056
:100C8700436F6C6F72203320496E697469616C69B8
:060C97007A65640D0A00FD
:010C9D00292D
:0D0C9E00426C756520446174613A202000AD
:030CAB000D0A002F
:0D0CAE00477265656E20446174613A200054
:100CBB0049324320496E697469616C697A65640DC8
:020CCB000A001D
:100CCD005541525420496E697469616C697A656445
:030CDD000D0A00FD
:030CE0000D0A00FA
:060CE3000000000000000B
:010CE90012F8
:100CEA0000000000000000000000000000000000FA
:090CFA00000000000000000000F1
:100D030020000000000000000000000000000000C0
:040D130000000000DC
:010D170001DA
:100D180000000000000000000000000000000000CB
:040D280000000000C7
:010D2C0000C6
:100D2D0000000000000000000000000000000000B6
:040D3D0000000000B2
:100D41003031323334353637383941424344454600
:020000040030CA
:0E00000015037F7CF98B91FFFFC0FFE0FF40EE
:00000001FF
